{
  "_format": "hh-sol-artifact-1",
  "contractName": "Xenia",
  "sourceName": "contracts/Xenia.sol",
  "abi": [
    {
      "inputs": [],
      "stateMutability": "nonpayable",
      "type": "constructor"
    },
    {
      "anonymous": false,
      "inputs": [
        {
          "indexed": true,
          "internalType": "address",
          "name": "sender",
          "type": "address"
        },
        {
          "indexed": false,
          "internalType": "uint256",
          "name": "amount",
          "type": "uint256"
        },
        {
          "indexed": true,
          "internalType": "bytes32",
          "name": "hashCode",
          "type": "bytes32"
        },
        {
          "indexed": false,
          "internalType": "string",
          "name": "url",
          "type": "string"
        }
      ],
      "name": "GiftCardCreated",
      "type": "event"
    },
    {
      "anonymous": false,
      "inputs": [
        {
          "indexed": true,
          "internalType": "address",
          "name": "recipient",
          "type": "address"
        },
        {
          "indexed": false,
          "internalType": "uint256",
          "name": "amount",
          "type": "uint256"
        },
        {
          "indexed": true,
          "internalType": "bytes32",
          "name": "hashCode",
          "type": "bytes32"
        }
      ],
      "name": "GiftCardRedeemed",
      "type": "event"
    },
    {
      "inputs": [
        {
          "internalType": "bytes32",
          "name": "_code",
          "type": "bytes32"
        },
        {
          "internalType": "string",
          "name": "_ipfs",
          "type": "string"
        }
      ],
      "name": "createGiftCard",
      "outputs": [],
      "stateMutability": "payable",
      "type": "function"
    },
    {
      "inputs": [
        {
          "internalType": "address",
          "name": "_sender",
          "type": "address"
        }
      ],
      "name": "getGiftCardsBySender",
      "outputs": [
        {
          "components": [
            {
              "internalType": "uint256",
              "name": "amount",
              "type": "uint256"
            },
            {
              "internalType": "address",
              "name": "sender",
              "type": "address"
            },
            {
              "internalType": "string",
              "name": "ipfs",
              "type": "string"
            },
            {
              "internalType": "bool",
              "name": "redeemed",
              "type": "bool"
            }
          ],
          "internalType": "struct Xenia.GiftCard[]",
          "name": "",
          "type": "tuple[]"
        }
      ],
      "stateMutability": "view",
      "type": "function"
    },
    {
      "inputs": [
        {
          "internalType": "uint256",
          "name": "",
          "type": "uint256"
        }
      ],
      "name": "giftCardCodes",
      "outputs": [
        {
          "internalType": "bytes32",
          "name": "",
          "type": "bytes32"
        }
      ],
      "stateMutability": "view",
      "type": "function"
    },
    {
      "inputs": [
        {
          "internalType": "bytes32",
          "name": "",
          "type": "bytes32"
        }
      ],
      "name": "giftCards",
      "outputs": [
        {
          "internalType": "uint256",
          "name": "amount",
          "type": "uint256"
        },
        {
          "internalType": "address",
          "name": "sender",
          "type": "address"
        },
        {
          "internalType": "string",
          "name": "ipfs",
          "type": "string"
        },
        {
          "internalType": "bool",
          "name": "redeemed",
          "type": "bool"
        }
      ],
      "stateMutability": "view",
      "type": "function"
    },
    {
      "inputs": [],
      "name": "owner",
      "outputs": [
        {
          "internalType": "address",
          "name": "",
          "type": "address"
        }
      ],
      "stateMutability": "view",
      "type": "function"
    },
    {
      "inputs": [
        {
          "internalType": "string",
          "name": "_code",
          "type": "string"
        }
      ],
      "name": "redeemGiftCard",
      "outputs": [],
      "stateMutability": "nonpayable",
      "type": "function"
    },
    {
      "inputs": [
        {
          "internalType": "string",
          "name": "_code",
          "type": "string"
        }
      ],
      "name": "validateGiftCard",
      "outputs": [
        {
          "internalType": "uint256",
          "name": "amount",
          "type": "uint256"
        },
        {
          "internalType": "address",
          "name": "sender",
          "type": "address"
        },
        {
          "internalType": "string",
          "name": "ipfs",
          "type": "string"
        },
        {
          "internalType": "bool",
          "name": "redeemed",
          "type": "bool"
        }
      ],
      "stateMutability": "view",
      "type": "function"
    }
  ],
  "bytecode": "0x6080604052348015600f57600080fd5b5033600260006101000a81548173ffffffffffffffffffffffffffffffffffffffff021916908373ffffffffffffffffffffffffffffffffffffffff160217905550611b2d806100606000396000f3fe6080604052600436106100705760003560e01c8063958b1f1e1161004e578063958b1f1e1461011d578063cdc33fed14610139578063deddb3b614610162578063efe59afe1461019f57610070565b80633e755c321461007557806349154097146100b55780638da5cb5b146100f2575b600080fd5b34801561008157600080fd5b5061009c60048036038101906100979190610e49565b6101df565b6040516100ac9493929190610f86565b60405180910390f35b3480156100c157600080fd5b506100dc60048036038101906100d79190610ffe565b610403565b6040516100e991906111c7565b60405180910390f35b3480156100fe57600080fd5b50610107610736565b60405161011491906111e9565b60405180910390f35b6101376004803603810190610132919061123a565b61075c565b005b34801561014557600080fd5b50610160600480360381019061015b9190610e49565b61094b565b005b34801561016e57600080fd5b50610189600480360381019061018491906112c2565b610ba6565b60405161019691906112fe565b60405180910390f35b3480156101ab57600080fd5b506101c660048036038101906101c19190611319565b610bca565b6040516101d69493929190610f86565b60405180910390f35b60008060606000806002866040516020016101fa9190611382565b60405160208183030381529060405260405161021691906113e0565b602060405180830381855afa158015610233573d6000803e3d6000fd5b5050506040513d601f19601f82011682018060405250810190610256919061140c565b9050600080600083815260200190815260200160002060000154116102b0576040517f08c379a00000000000000000000000000000000000000000000000000000000081526004016102a7906114ab565b60405180910390fd5b6000806000838152602001908152602001600020604051806080016040529081600082015481526020016001820160009054906101000a900473ffffffffffffffffffffffffffffffffffffffff1673ffffffffffffffffffffffffffffffffffffffff1673ffffffffffffffffffffffffffffffffffffffff16815260200160028201805461033f906114fa565b80601f016020809104026020016040519081016040528092919081815260200182805461036b906114fa565b80156103b85780601f1061038d576101008083540402835291602001916103b8565b820191906000526020600020905b81548152906001019060200180831161039b57829003601f168201915b505050505081526020016003820160009054906101000a900460ff16151515158152505090508060000151816020015182604001518360600151955095509550955050509193509193565b60606000805b6001805490508110156104b8578373ffffffffffffffffffffffffffffffffffffffff16600080600184815481106104445761044361152b565b5b9060005260206000200154815260200190815260200160002060010160009054906101000a900473ffffffffffffffffffffffffffffffffffffffff1673ffffffffffffffffffffffffffffffffffffffff16036104ab5781806104a790611589565b9250505b8080600101915050610409565b5060008167ffffffffffffffff8111156104d5576104d4610d1e565b5b60405190808252806020026020018201604052801561050e57816020015b6104fb610caf565b8152602001906001900390816104f35790505b5090506000805b60018054905081101561072a578573ffffffffffffffffffffffffffffffffffffffff16600080600184815481106105505761054f61152b565b5b9060005260206000200154815260200190815260200160002060010160009054906101000a900473ffffffffffffffffffffffffffffffffffffffff1673ffffffffffffffffffffffffffffffffffffffff160361071d57600080600183815481106105bf576105be61152b565b5b90600052602060002001548152602001908152602001600020604051806080016040529081600082015481526020016001820160009054906101000a900473ffffffffffffffffffffffffffffffffffffffff1673ffffffffffffffffffffffffffffffffffffffff1673ffffffffffffffffffffffffffffffffffffffff168152602001600282018054610653906114fa565b80601f016020809104026020016040519081016040528092919081815260200182805461067f906114fa565b80156106cc5780601f106106a1576101008083540402835291602001916106cc565b820191906000526020600020905b8154815290600101906020018083116106af57829003601f168201915b505050505081526020016003820160009054906101000a900460ff1615151515815250508383815181106107035761070261152b565b5b6020026020010181905250818061071990611589565b9250505b8080600101915050610515565b50819350505050919050565b600260009054906101000a900473ffffffffffffffffffffffffffffffffffffffff1681565b6000341161079f576040517f08c379a000000000000000000000000000000000000000000000000000000000815260040161079690611643565b60405180910390fd5b600080600084815260200190815260200160002060000154146107f7576040517f08c379a00000000000000000000000000000000000000000000000000000000081526004016107ee906116d5565b60405180910390fd5b60405180608001604052803481526020013373ffffffffffffffffffffffffffffffffffffffff168152602001828152602001600015158152506000808481526020019081526020016000206000820151816000015560208201518160010160006101000a81548173ffffffffffffffffffffffffffffffffffffffff021916908373ffffffffffffffffffffffffffffffffffffffff16021790555060408201518160020190816108a991906118a1565b5060608201518160030160006101000a81548160ff0219169083151502179055509050506001829080600181540180825580915050600190039060005260206000200160009091909190915055813373ffffffffffffffffffffffffffffffffffffffff167f602f3724ec7274cee88ca23f2b4a38eafef216d76e2a085e36c37a947063dfbb348460405161093f929190611973565b60405180910390a35050565b60006002826040516020016109609190611382565b60405160208183030381529060405260405161097c91906113e0565b602060405180830381855afa158015610999573d6000803e3d6000fd5b5050506040513d601f19601f820116820180604052508101906109bc919061140c565b905060008060008381526020019081526020016000206000015411610a16576040517f08c379a0000000000000000000000000000000000000000000000000000000008152600401610a0d906114ab565b60405180910390fd5b600080600083815260200190815260200160002090508060030160009054906101000a900460ff1615610a7e576040517f08c379a0000000000000000000000000000000000000000000000000000000008152600401610a7590611a15565b60405180910390fd5b60018160030160006101000a81548160ff02191690831515021790555060008160000154905060003373ffffffffffffffffffffffffffffffffffffffff1682604051610aca90611a5b565b60006040518083038185875af1925050503d8060008114610b07576040519150601f19603f3d011682016040523d82523d6000602084013e610b0c565b606091505b5050905080610b50576040517f08c379a0000000000000000000000000000000000000000000000000000000008152600401610b4790611abc565b60405180910390fd5b833373ffffffffffffffffffffffffffffffffffffffff167f3966759b77556c8dbc2b7ea1ae477efbe180218c4facbac6a02f96e3c34b4e0884604051610b979190611adc565b60405180910390a35050505050565b60018181548110610bb657600080fd5b906000526020600020016000915090505481565b60006020528060005260406000206000915090508060000154908060010160009054906101000a900473ffffffffffffffffffffffffffffffffffffffff1690806002018054610c19906114fa565b80601f0160208091040260200160405190810160405280929190818152602001828054610c45906114fa565b8015610c925780601f10610c6757610100808354040283529160200191610c92565b820191906000526020600020905b815481529060010190602001808311610c7557829003601f168201915b5050505050908060030160009054906101000a900460ff16905084565b604051806080016040528060008152602001600073ffffffffffffffffffffffffffffffffffffffff168152602001606081526020016000151581525090565b6000604051905090565b600080fd5b600080fd5b600080fd5b600080fd5b6000601f19601f8301169050919050565b7f4e487b7100000000000000000000000000000000000000000000000000000000600052604160045260246000fd5b610d5682610d0d565b810181811067ffffffffffffffff82111715610d7557610d74610d1e565b5b80604052505050565b6000610d88610cef565b9050610d948282610d4d565b919050565b600067ffffffffffffffff821115610db457610db3610d1e565b5b610dbd82610d0d565b9050602081019050919050565b82818337600083830152505050565b6000610dec610de784610d99565b610d7e565b905082815260208101848484011115610e0857610e07610d08565b5b610e13848285610dca565b509392505050565b600082601f830112610e3057610e2f610d03565b5b8135610e40848260208601610dd9565b91505092915050565b600060208284031215610e5f57610e5e610cf9565b5b600082013567ffffffffffffffff811115610e7d57610e7c610cfe565b5b610e8984828501610e1b565b91505092915050565b6000819050919050565b610ea581610e92565b82525050565b600073ffffffffffffffffffffffffffffffffffffffff82169050919050565b6000610ed682610eab565b9050919050565b610ee681610ecb565b82525050565b600081519050919050565b600082825260208201905092915050565b60005b83811015610f26578082015181840152602081019050610f0b565b60008484015250505050565b6000610f3d82610eec565b610f478185610ef7565b9350610f57818560208601610f08565b610f6081610d0d565b840191505092915050565b60008115159050919050565b610f8081610f6b565b82525050565b6000608082019050610f9b6000830187610e9c565b610fa86020830186610edd565b8181036040830152610fba8185610f32565b9050610fc96060830184610f77565b95945050505050565b610fdb81610ecb565b8114610fe657600080fd5b50565b600081359050610ff881610fd2565b92915050565b60006020828403121561101457611013610cf9565b5b600061102284828501610fe9565b91505092915050565b600081519050919050565b600082825260208201905092915050565b6000819050602082019050919050565b61106081610e92565b82525050565b61106f81610ecb565b82525050565b600082825260208201905092915050565b600061109182610eec565b61109b8185611075565b93506110ab818560208601610f08565b6110b481610d0d565b840191505092915050565b6110c881610f6b565b82525050565b60006080830160008301516110e66000860182611057565b5060208301516110f96020860182611066565b50604083015184820360408601526111118282611086565b915050606083015161112660608601826110bf565b508091505092915050565b600061113d83836110ce565b905092915050565b6000602082019050919050565b600061115d8261102b565b6111678185611036565b93508360208202850161117985611047565b8060005b858110156111b557848403895281516111968582611131565b94506111a183611145565b925060208a0199505060018101905061117d565b50829750879550505050505092915050565b600060208201905081810360008301526111e18184611152565b905092915050565b60006020820190506111fe6000830184610edd565b92915050565b6000819050919050565b61121781611204565b811461122257600080fd5b50565b6000813590506112348161120e565b92915050565b6000806040838503121561125157611250610cf9565b5b600061125f85828601611225565b925050602083013567ffffffffffffffff8111156112805761127f610cfe565b5b61128c85828601610e1b565b9150509250929050565b61129f81610e92565b81146112aa57600080fd5b50565b6000813590506112bc81611296565b92915050565b6000602082840312156112d8576112d7610cf9565b5b60006112e6848285016112ad565b91505092915050565b6112f881611204565b82525050565b600060208201905061131360008301846112ef565b92915050565b60006020828403121561132f5761132e610cf9565b5b600061133d84828501611225565b91505092915050565b600081905092915050565b600061135c82610eec565b6113668185611346565b9350611376818560208601610f08565b80840191505092915050565b600061138e8284611351565b915081905092915050565b600081519050919050565b600081905092915050565b60006113ba82611399565b6113c481856113a4565b93506113d4818560208601610f08565b80840191505092915050565b60006113ec82846113af565b915081905092915050565b6000815190506114068161120e565b92915050565b60006020828403121561142257611421610cf9565b5b6000611430848285016113f7565b91505092915050565b7f41206769667420636172642077697468207468697320636f646520646f65732060008201527f6e6f742065786973742100000000000000000000000000000000000000000000602082015250565b6000611495602a83610ef7565b91506114a082611439565b604082019050919050565b600060208201905081810360008301526114c481611488565b9050919050565b7f4e487b7100000000000000000000000000000000000000000000000000000000600052602260045260246000fd5b6000600282049050600182168061151257607f821691505b602082108103611525576115246114cb565b5b50919050565b7f4e487b7100000000000000000000000000000000000000000000000000000000600052603260045260246000fd5b7f4e487b7100000000000000000000000000000000000000000000000000000000600052601160045260246000fd5b600061159482610e92565b91507fffffffffffffffffffffffffffffffffffffffffffffffffffffffffffffffff82036115c6576115c561155a565b5b600182019050919050565b7f47696674206361726420616d6f756e74206d757374206265206772656174657260008201527f207468616e207a65726f00000000000000000000000000000000000000000000602082015250565b600061162d602a83610ef7565b9150611638826115d1565b604082019050919050565b6000602082019050818103600083015261165c81611620565b9050919050565b7f4769667420636172642077697468207468697320636f646520616c726561647960008201527f2065786973747300000000000000000000000000000000000000000000000000602082015250565b60006116bf602783610ef7565b91506116ca82611663565b604082019050919050565b600060208201905081810360008301526116ee816116b2565b9050919050565b60008190508160005260206000209050919050565b60006020601f8301049050919050565b600082821b905092915050565b6000600883026117577fffffffffffffffffffffffffffffffffffffffffffffffffffffffffffffffff8261171a565b611761868361171a565b95508019841693508086168417925050509392505050565b6000819050919050565b600061179e61179961179484610e92565b611779565b610e92565b9050919050565b6000819050919050565b6117b883611783565b6117cc6117c4826117a5565b848454611727565b825550505050565b600090565b6117e16117d4565b6117ec8184846117af565b505050565b5b81811015611810576118056000826117d9565b6001810190506117f2565b5050565b601f82111561185557611826816116f5565b61182f8461170a565b8101602085101561183e578190505b61185261184a8561170a565b8301826117f1565b50505b505050565b600082821c905092915050565b60006118786000198460080261185a565b1980831691505092915050565b60006118918383611867565b9150826002028217905092915050565b6118aa82610eec565b67ffffffffffffffff8111156118c3576118c2610d1e565b5b6118cd82546114fa565b6118d8828285611814565b600060209050601f83116001811461190b57600084156118f9578287015190505b6119038582611885565b86555061196b565b601f198416611919866116f5565b60005b828110156119415784890151825560018201915060208501945060208101905061191c565b8683101561195e578489015161195a601f891682611867565b8355505b6001600288020188555050505b505050505050565b60006040820190506119886000830185610e9c565b818103602083015261199a8184610f32565b90509392505050565b7f4769667420636172642068617320616c7265616479206265656e20726564656560008201527f6d65642100000000000000000000000000000000000000000000000000000000602082015250565b60006119ff602483610ef7565b9150611a0a826119a3565b604082019050919050565b60006020820190508181036000830152611a2e816119f2565b9050919050565b50565b6000611a456000836113a4565b9150611a5082611a35565b600082019050919050565b6000611a6682611a38565b9150819050919050565b7f5472616e73666572206661696c65640000000000000000000000000000000000600082015250565b6000611aa6600f83610ef7565b9150611ab182611a70565b602082019050919050565b60006020820190508181036000830152611ad581611a99565b9050919050565b6000602082019050611af16000830184610e9c565b9291505056fea26469706673582212203641c2cbebeb09e883e133245dbcf5d2fa5bf205d66570404d522cdfccebd40164736f6c634300081b0033",
  "linkReferences": {},
  "deployedLinkReferences": {}
}