{
  "_format": "hh-sol-artifact-1",
  "contractName": "Xenia",
  "sourceName": "contracts/Xenia.sol",
  "abi": [
    {
      "inputs": [],
      "stateMutability": "nonpayable",
      "type": "constructor"
    },
    {
      "anonymous": false,
      "inputs": [
        {
          "indexed": true,
          "internalType": "address",
          "name": "sender",
          "type": "address"
        },
        {
          "indexed": false,
          "internalType": "uint256",
          "name": "amount",
          "type": "uint256"
        },
        {
          "indexed": true,
          "internalType": "string",
          "name": "hashCode",
          "type": "string"
        },
        {
          "indexed": false,
          "internalType": "string",
          "name": "url",
          "type": "string"
        }
      ],
      "name": "GiftCardCreated",
      "type": "event"
    },
    {
      "anonymous": false,
      "inputs": [
        {
          "indexed": true,
          "internalType": "address",
          "name": "recipient",
          "type": "address"
        },
        {
          "indexed": false,
          "internalType": "uint256",
          "name": "amount",
          "type": "uint256"
        },
        {
          "indexed": true,
          "internalType": "string",
          "name": "hashCode",
          "type": "string"
        }
      ],
      "name": "GiftCardRedeemed",
      "type": "event"
    },
    {
      "inputs": [
        {
          "internalType": "string",
          "name": "_code",
          "type": "string"
        },
        {
          "internalType": "string",
          "name": "_ipfs",
          "type": "string"
        }
      ],
      "name": "createGiftCard",
      "outputs": [],
      "stateMutability": "payable",
      "type": "function"
    },
    {
      "inputs": [
        {
          "internalType": "string",
          "name": "",
          "type": "string"
        }
      ],
      "name": "giftCards",
      "outputs": [
        {
          "internalType": "uint256",
          "name": "amount",
          "type": "uint256"
        },
        {
          "internalType": "address",
          "name": "sender",
          "type": "address"
        },
        {
          "internalType": "string",
          "name": "ipfs",
          "type": "string"
        },
        {
          "internalType": "bool",
          "name": "redeemed",
          "type": "bool"
        }
      ],
      "stateMutability": "view",
      "type": "function"
    },
    {
      "inputs": [],
      "name": "nextGiftCardId",
      "outputs": [
        {
          "internalType": "uint256",
          "name": "",
          "type": "uint256"
        }
      ],
      "stateMutability": "view",
      "type": "function"
    },
    {
      "inputs": [],
      "name": "owner",
      "outputs": [
        {
          "internalType": "address",
          "name": "",
          "type": "address"
        }
      ],
      "stateMutability": "view",
      "type": "function"
    },
    {
      "inputs": [
        {
          "internalType": "string",
          "name": "_code",
          "type": "string"
        }
      ],
      "name": "redeemGiftCard",
      "outputs": [],
      "stateMutability": "nonpayable",
      "type": "function"
    },
    {
      "inputs": [
        {
          "internalType": "string",
          "name": "_code",
          "type": "string"
        }
      ],
      "name": "validateGiftCard",
      "outputs": [
        {
          "internalType": "uint256",
          "name": "amount",
          "type": "uint256"
        },
        {
          "internalType": "address",
          "name": "sender",
          "type": "address"
        },
        {
          "internalType": "string",
          "name": "ipfs",
          "type": "string"
        },
        {
          "internalType": "bool",
          "name": "redeemed",
          "type": "bool"
        }
      ],
      "stateMutability": "view",
      "type": "function"
    }
  ],
  "bytecode": "0x6080604052348015600f57600080fd5b5033600160006101000a81548173ffffffffffffffffffffffffffffffffffffffff021916908373ffffffffffffffffffffffffffffffffffffffff1602179055506001600281905550611289806100686000396000f3fe6080604052600436106100555760003560e01c80630c49efc41461005a5780633cde0e7f1461009a5780633e755c32146100c55780638da5cb5b146101055780639409c19014610130578063cdc33fed1461014c575b600080fd5b34801561006657600080fd5b50610081600480360381019061007c91906109c1565b610175565b6040516100919493929190610afe565b60405180910390f35b3480156100a657600080fd5b506100af610270565b6040516100bc9190610b4a565b60405180910390f35b3480156100d157600080fd5b506100ec60048036038101906100e791906109c1565b610276565b6040516100fc9493929190610afe565b60405180910390f35b34801561011157600080fd5b5061011a61043d565b6040516101279190610b65565b60405180910390f35b61014a60048036038101906101459190610b80565b610463565b005b34801561015857600080fd5b50610173600480360381019061016e91906109c1565b610655565b005b6000818051602081018201805184825260208301602085012081835280955050505050506000915090508060000154908060010160009054906101000a900473ffffffffffffffffffffffffffffffffffffffff16908060020180546101da90610c27565b80601f016020809104026020016040519081016040528092919081815260200182805461020690610c27565b80156102535780601f1061022857610100808354040283529160200191610253565b820191906000526020600020905b81548152906001019060200180831161023657829003601f168201915b5050505050908060030160009054906101000a900460ff16905084565b60025481565b600080606060008060008660405161028e9190610c94565b908152602001604051809103902060000154116102e0576040517f08c379a00000000000000000000000000000000000000000000000000000000081526004016102d790610d1d565b60405180910390fd5b600080866040516102f19190610c94565b9081526020016040518091039020604051806080016040529081600082015481526020016001820160009054906101000a900473ffffffffffffffffffffffffffffffffffffffff1673ffffffffffffffffffffffffffffffffffffffff1673ffffffffffffffffffffffffffffffffffffffff16815260200160028201805461037a90610c27565b80601f01602080910402602001604051908101604052809291908181526020018280546103a690610c27565b80156103f35780601f106103c8576101008083540402835291602001916103f3565b820191906000526020600020905b8154815290600101906020018083116103d657829003601f168201915b505050505081526020016003820160009054906101000a900460ff161515151581525050905080600001518160200151826040015183606001519450945094509450509193509193565b600160009054906101000a900473ffffffffffffffffffffffffffffffffffffffff1681565b600034116104a6576040517f08c379a000000000000000000000000000000000000000000000000000000000815260040161049d90610daf565b60405180910390fd5b600080836040516104b79190610c94565b90815260200160405180910390206000015414610509576040517f08c379a000000000000000000000000000000000000000000000000000000000815260040161050090610e41565b60405180910390fd5b60405180608001604052803481526020013373ffffffffffffffffffffffffffffffffffffffff168152602001828152602001600015158152506000836040516105539190610c94565b90815260200160405180910390206000820151816000015560208201518160010160006101000a81548173ffffffffffffffffffffffffffffffffffffffff021916908373ffffffffffffffffffffffffffffffffffffffff16021790555060408201518160020190816105c7919061100d565b5060608201518160030160006101000a81548160ff021916908315150217905550905050816040516105f99190610c94565b60405180910390203373ffffffffffffffffffffffffffffffffffffffff167fd5292287172b4bfebdc7645238ddc98cfc860fcd5fa151f24247d75b36672ff634846040516106499291906110df565b60405180910390a35050565b600080826040516106669190610c94565b908152602001604051809103902060000154116106b8576040517f08c379a00000000000000000000000000000000000000000000000000000000081526004016106af90610d1d565b60405180910390fd5b600080826040516106c99190610c94565b908152602001604051809103902090508060030160009054906101000a900460ff161561072b576040517f08c379a000000000000000000000000000000000000000000000000000000000815260040161072290611181565b60405180910390fd5b60018160030160006101000a81548160ff02191690831515021790555060008160000154905060003373ffffffffffffffffffffffffffffffffffffffff1682604051610777906111d2565b60006040518083038185875af1925050503d80600081146107b4576040519150601f19603f3d011682016040523d82523d6000602084013e6107b9565b606091505b50509050806107fd576040517f08c379a00000000000000000000000000000000000000000000000000000000081526004016107f490611233565b60405180910390fd5b8360405161080b9190610c94565b60405180910390203373ffffffffffffffffffffffffffffffffffffffff167f25b3de5de146d73d5ecbb25b1f13f1c6e37e77d2c82717a74659a502171c2b66846040516108599190610b4a565b60405180910390a350505050565b6000604051905090565b600080fd5b600080fd5b600080fd5b600080fd5b6000601f19601f8301169050919050565b7f4e487b7100000000000000000000000000000000000000000000000000000000600052604160045260246000fd5b6108ce82610885565b810181811067ffffffffffffffff821117156108ed576108ec610896565b5b80604052505050565b6000610900610867565b905061090c82826108c5565b919050565b600067ffffffffffffffff82111561092c5761092b610896565b5b61093582610885565b9050602081019050919050565b82818337600083830152505050565b600061096461095f84610911565b6108f6565b9050828152602081018484840111156109805761097f610880565b5b61098b848285610942565b509392505050565b600082601f8301126109a8576109a761087b565b5b81356109b8848260208601610951565b91505092915050565b6000602082840312156109d7576109d6610871565b5b600082013567ffffffffffffffff8111156109f5576109f4610876565b5b610a0184828501610993565b91505092915050565b6000819050919050565b610a1d81610a0a565b82525050565b600073ffffffffffffffffffffffffffffffffffffffff82169050919050565b6000610a4e82610a23565b9050919050565b610a5e81610a43565b82525050565b600081519050919050565b600082825260208201905092915050565b60005b83811015610a9e578082015181840152602081019050610a83565b60008484015250505050565b6000610ab582610a64565b610abf8185610a6f565b9350610acf818560208601610a80565b610ad881610885565b840191505092915050565b60008115159050919050565b610af881610ae3565b82525050565b6000608082019050610b136000830187610a14565b610b206020830186610a55565b8181036040830152610b328185610aaa565b9050610b416060830184610aef565b95945050505050565b6000602082019050610b5f6000830184610a14565b92915050565b6000602082019050610b7a6000830184610a55565b92915050565b60008060408385031215610b9757610b96610871565b5b600083013567ffffffffffffffff811115610bb557610bb4610876565b5b610bc185828601610993565b925050602083013567ffffffffffffffff811115610be257610be1610876565b5b610bee85828601610993565b9150509250929050565b7f4e487b7100000000000000000000000000000000000000000000000000000000600052602260045260246000fd5b60006002820490506001821680610c3f57607f821691505b602082108103610c5257610c51610bf8565b5b50919050565b600081905092915050565b6000610c6e82610a64565b610c788185610c58565b9350610c88818560208601610a80565b80840191505092915050565b6000610ca08284610c63565b915081905092915050565b7f41206769667420636172642077697468207468697320636f646520646f65732060008201527f6e6f742065786973742100000000000000000000000000000000000000000000602082015250565b6000610d07602a83610a6f565b9150610d1282610cab565b604082019050919050565b60006020820190508181036000830152610d3681610cfa565b9050919050565b7f47696674206361726420616d6f756e74206d757374206265206772656174657260008201527f207468616e207a65726f00000000000000000000000000000000000000000000602082015250565b6000610d99602a83610a6f565b9150610da482610d3d565b604082019050919050565b60006020820190508181036000830152610dc881610d8c565b9050919050565b7f4769667420636172642077697468207468697320636f646520616c726561647960008201527f2065786973747300000000000000000000000000000000000000000000000000602082015250565b6000610e2b602783610a6f565b9150610e3682610dcf565b604082019050919050565b60006020820190508181036000830152610e5a81610e1e565b9050919050565b60008190508160005260206000209050919050565b60006020601f8301049050919050565b600082821b905092915050565b600060088302610ec37fffffffffffffffffffffffffffffffffffffffffffffffffffffffffffffffff82610e86565b610ecd8683610e86565b95508019841693508086168417925050509392505050565b6000819050919050565b6000610f0a610f05610f0084610a0a565b610ee5565b610a0a565b9050919050565b6000819050919050565b610f2483610eef565b610f38610f3082610f11565b848454610e93565b825550505050565b600090565b610f4d610f40565b610f58818484610f1b565b505050565b5b81811015610f7c57610f71600082610f45565b600181019050610f5e565b5050565b601f821115610fc157610f9281610e61565b610f9b84610e76565b81016020851015610faa578190505b610fbe610fb685610e76565b830182610f5d565b50505b505050565b600082821c905092915050565b6000610fe460001984600802610fc6565b1980831691505092915050565b6000610ffd8383610fd3565b9150826002028217905092915050565b61101682610a64565b67ffffffffffffffff81111561102f5761102e610896565b5b6110398254610c27565b611044828285610f80565b600060209050601f8311600181146110775760008415611065578287015190505b61106f8582610ff1565b8655506110d7565b601f19841661108586610e61565b60005b828110156110ad57848901518255600182019150602085019450602081019050611088565b868310156110ca57848901516110c6601f891682610fd3565b8355505b6001600288020188555050505b505050505050565b60006040820190506110f46000830185610a14565b81810360208301526111068184610aaa565b90509392505050565b7f4769667420636172642068617320616c7265616479206265656e20726564656560008201527f6d65642100000000000000000000000000000000000000000000000000000000602082015250565b600061116b602483610a6f565b91506111768261110f565b604082019050919050565b6000602082019050818103600083015261119a8161115e565b9050919050565b600081905092915050565b50565b60006111bc6000836111a1565b91506111c7826111ac565b600082019050919050565b60006111dd826111af565b9150819050919050565b7f5472616e73666572206661696c65640000000000000000000000000000000000600082015250565b600061121d600f83610a6f565b9150611228826111e7565b602082019050919050565b6000602082019050818103600083015261124c81611210565b905091905056fea2646970667358221220c88e4366a01d6a947224f5713909f532e56f3cc9dc29d7b3cfcfe58dec30255564736f6c634300081b0033",
  "linkReferences": {},
  "deployedLinkReferences": {}
}